:020000040800F2
:100000000000012081050008C9110008CF11000877
:10001000D5110008DB110008E11100080000000004
:10002000000000000000000000000000F15A00087D
:10003000E711000800000000D15B0008395C0008EF
:10004000D1050008D1050008D1050008D105000838
:10005000D1050008D1050008D1050008D105000828
:10006000D1050008F5110008D1050008D1050008E8
:10007000D1050008D1050008D1050008D105000808
:10008000D1050008D1050008D1050008D1050008F8
:10009000D1050008D1050008D1050008D1050008E8
:1000A000D1050008D1050008D1050008D1050008D8
:1000B000051200080000000000000000D105000843
:1000C000D10500080000000000000000D105000874
:1000D00000000000D1050008D10500080000000064
:1000E000D1050008D1050008000000000000000054
:1000F0000000000000000000000000000000000000
:10010000000000000000000000000000D105000811
:10011000000000000000000019120008D1050008CE
:10012000D1050008D1050008D1050008D105000857
:10013000D1050008000000000000000000000000E1
:10014000D1050008D1050008D1050008D105000837
:10015000D1050008D1050008D1050008D105000827
:10016000D1050008D1050008D105000800000000F5
:10017000D1050008D10500080000000000000000C3
:0C018000D1050008D1050008D1050008D9
:1001900010B5054C237833B9044B13B10448AFF3C1
:1001A00000800123237010BD7C00002000000000AF
:1001B0001C6D000808B5034B1BB103490348AFF39E
:1001C000008008BD00000000800000201C6D0008B9
:1001D00001F0FF01102A2BDB10F0070F08D010F8F8
:1001E000013B013A8B422DD010F0070F42B3F6D1FC
:1001F000F0B441EA012141EA014122F007047FF015
:1002000000070023F0E80256083C85EA010586EA6B
:10021000010685FA47F5A3FA87F586FA47F6A5FAA7
:1002200087F68EB9EED1F0BC01F0FF0102F00702B3
:1002300032B110F8013B013A83EA010313B1F8D15E
:100240000020704701387047002D06BF354603383F
:10025000073815F0010F07D1013015F4807F02BF78
:10026000013015F4C03F0130F0BC0138704700BFC9
:1002700053B94AB9002908BF00281CBF4FF0FF310D
:100280004FF0FF3000F07AB9ADF1080C6DE904CE03
:1002900000F006F8DDF804E0DDE9022304B0704761
:1002A0002DE9F0478C460D460446089E002B51D19F
:1002B0008A4217466DD9B2FA82FEBEF1000F0BD00A
:1002C000CEF1200C01FA0EF520FA0CFC02FA0EF722
:1002D0004CEA050C00FA0EF44FEA174A250CBCFB59
:1002E000FAF81FFA87F90AFB18CC45EA0C4508FB17
:1002F00009F3AB420AD9ED1908F1FF3280F02381EE
:10030000AB4240F22081A8F102083D44ED1AA4B2AC
:10031000B5FBFAF00AFB105544EA054400FB09F965
:10032000A14509D9E41900F1FF3380F00A81A14504
:1003300040F2078102383C44A4EB090440EA08403B
:100340000021002E61D024FA0EF400233460736083
:10035000BDE8F0878B4207D9002E54D0002186E8F3
:1003600021000846BDE8F087B3FA83F1002940F088
:100370008E80AB4202D3824200F2FA80841A65EB8F
:1003800003050120AC46002E3FD086E81010BDE8E2
:10039000F08712B90127B7FBF2F7B7FA87FEBEF173
:1003A000000F34D1EB1B3A0C1FFA87FC0121B3FB81
:1003B000F2F8250C02FB183345EA03450CFB08F361
:1003C000AB4207D9ED1908F1FF3002D2AB4200F27F
:1003D000D1808046ED1AA3B2B5FBF2F002FB1055B6
:1003E00043EA05440CFB00FCA44507D9E41900F1DD
:1003F000FF3302D2A44500F2B8801846A4EB0C04E7
:1004000040EA08409DE731463046BDE8F087CEF12E
:10041000200405FA0EF307FA0EF720FA04F83A0C56
:1004200025FA04F448EA0308B4FBF2F14FEA184550
:1004300002FB11441FFA87FC45EA044501FB0CF35B
:10044000AB4200FA0EF409D9ED1901F1FF3080F04A
:100450008A80AB4240F2878002393D44EB1A1FFA92
:1004600088F5B3FBF2F002FB103345EA034500FBCD
:100470000CF3AB4207D9ED1900F1FF386FD2AB4254
:100480006DD902383D44EB1A40EA01418FE7C1F1D2
:10049000200722FA07F88B4005FA01F448EA030323
:1004A00020FA07FE4FEA134CFD404EEA040EB5FB5E
:1004B000FCF94FEA1E440CFB19551FFA83F844EA75
:1004C000054509FB08F4AC4202FA01F200FA01FA10
:1004D00008D9ED1809F1FF3043D2AC4241D9A9F156
:1004E00002091D442D1B1FFA8EFEB5FBFCF00CFB10
:1004F00010554EEA054400FB08F8A04507D9E4185A
:1005000000F1FF3529D2A04527D902381C4440EA22
:100510000940A4EB0804A0FB02894C45C6464D46A1
:1005200015D312D056B1BAEB0E0364EB050404FAEE
:1005300007F7CB401F43CC40376074600021BDE813
:10054000F0871846F8E69046E0E6C245EAD2B8EBF6
:10055000020E69EB03050138E4E72846D7E7404679
:1005600091E78146BEE7014678E702383C4445E71B
:10057000084608E7A8F102083D442BE7704700BF92
:10058000DFF834D000F088FF002103E00B4B5B580C
:10059000435004310A480B4B42189A42F6D30A4A98
:1005A00002E0002342F8043B084B9A42F9D305F0DD
:1005B0006BFF00F079F9FEE700000120507500089C
:1005C000000000207C0000207C000020E0170020BC
:1005D000FEE7000080B584B000AF7860114B1B6867
:1005E000002B02D10F4B104A1A600E4B1B68FB60A8
:1005F0000C4B1A687B6813446A46934207D905F08E
:100600003DFF02460C2313604FF0FF3306E0054B1D
:100610001A687B681344034A1360FB681846103756
:10062000BD4680BD98000020E017002080B58AB04C
:1006300000AF07F1140300221A605A609A60DA6072
:100640001A61434A424BDB6C43F00403D364404BD2
:10065000DB6C03F004033B613B693D4A3C4BDB6CC4
:1006600043F00103D3643A4BDB6C03F00103FB60FE
:10067000FB68374A364BDB6C43F00203D364344BE0
:10068000DB6C03F00203BB60BB68314A304BDB6CB0
:1006900043F08003D3642E4BDB6C03F080037B605C
:1006A0007B68002208212B4801F014FC4FF44043E2
:1006B0007B610323BB610023FB6107F1140319462F
:1006C000254801F09DFA41F6F2337B610323BB61BB
:1006D0000023FB6107F1140319464FF0904001F02D
:1006E0008FFA08237B611D4BBB610223FB6107F17D
:1006F000140319464FF0904001F082FAB3237B6156
:100700000323BB610023FB6107F114031946114861
:1007100001F076FA08237B610123BB610023FB61B2
:1007200000233B6207F1140319460A4801F068FAF6
:1007300008237B610323BB610023FB6107F11403E2
:100740001946074801F05CFA00BF2837BD4680BD56
:10075000001002400004004800080048000011108A
:10076000001C004880B500AF1B4B1C4A1A601A4B96
:100770001B4A5A60184B00229A60174B0122DA601C
:10078000154B00221A61144B00225A61124B0022B1
:100790009A61114B0022DA610F4B00221A620E4857
:1007A00001F0D3FB0346002B01D000F09BFB00219E
:1007B000094801F033FF0346002B01D000F092FB03
:1007C0000021054801F075FF0346002B01D000F021
:1007D00089FB00BF80BD00BF901500200054004081
:1007E000EC9C901080B58AB000AF786007F11403DC
:1007F00000221A605A609A60DA601A617B681B688E
:10080000264A934245D1264A254BDB6C43F001032F
:10081000D364234BDB6C03F001033B613B69204A4B
:100820001F4BDB6C43F00203D3641D4BDB6C03F006
:100830000203FB60FB684FF480637B611223BB61A2
:100840000123FB6102233B6204237B6207F1140353
:1008500019464FF0904001F0D3F940237B611223F9
:10086000BB610123FB6102233B6204237B6207F12E
:10087000140319460B4801F0C3F9094A084B9B6D54
:1008800043F400139365064B9B6D03F40013BB60A8
:10089000BB6800BF2837BD4680BD00BF0054004084
:1008A00000100240000400482DE9F04FBFB002AF35
:1008B000114A00231370104A002313710E4A40F2AC
:1008C0000553538001F062F800F0A8F9FFF7AEFE7F
:1008D00000F05EFDFFF746FF00F0A8FC00F07EFB95
:1008E00000F018FA054A00231380034B1B79012BF3
:1008F00008D1034A07E000BF94160020F415002039
:1009000050160020B94ABA4B5A60B94AB94B9360A5
:10091000012387F8EF3097F8EF30013BC7F8E83054
:1009200097F8EF104FF000020B461446E60046EA37
:100930005376DD002B4634465B1A64EB02044FEA23
:10094000441949EAD3694FEA431843464C4697F89D
:10095000EF201346DB009B1A9B0097F8EF104FF037
:1009600000020B4614464FEAC40B4BEA537B4FEA96
:10097000C30A53465C465B1A64EB020462017A6266
:100980007A6A42EAD3627A625B013B62D7E9083451
:1009900097F8EF201346DB009B1A9B0003330733C5
:1009A000DB08DB00ADEB030D02AB03339B089B00C0
:1009B000C7F8E430904B00221A808F4B8C4A5A6063
:1009C000D7F8E4308C4A93608B4B8C4A1A618A4B7F
:1009D00000225A610023A7F8B8300023A7F8B830E6
:1009E00007F1B403C7F8C030D7F8E4301D4607F16B
:1009F000B8040FCC0FC594E8070085E8070004236E
:100A000087F8E33097F8E330013BC7F8DC3097F81C
:100A1000E3104FF000020B461446E000F861F8695D
:100A200040EA5370F861DB00BB61D7E906345B1A1A
:100A300064EB020462017A617A6942EAD3627A6104
:100A40005B013B61D7E9043497F8E3201346DB00F0
:100A50009B1A9B0097F8E3104FF000020B461446D8
:100A6000E000F860F86840EA5370F860DB00BB60B3
:100A7000D7E902345B1A64EB020462017A607A6897
:100A800042EAD3627A605B013B6097E8180097F80E
:100A9000E3201346DB009B1A9B0003330733DB087C
:100AA000DB00ADEB030D02AB03339B089B00C7F8E3
:100AB000D8304E4B01221A804C4B4D4A5A60D7F821
:100AC000D8304A4A936097F8E3309AB2474B9A81FC
:100AD000464B4B4A1A61454B00225A614FF00003C6
:100AE000C7F89030474B1B7887F894300023A7F85D
:100AF000983007F19003C7F8A030434BC7F8AC30EB
:100B00000123A7F8743007F17003FB673E4BC7F869
:100B100088300223A7F8543007F15003FB653A4BA5
:100B2000BB660323BB8607F13003FB63364BBB6414
:100B3000D7F8D8301D4607F198040FCC0FC594E8BC
:100B4000070085E80700D7F8D83003F11C0407F147
:100B500074050FCD0FC495E8070084E80700D7F8A7
:100B6000D83003F1380407F154050FCD0FC495E8D0
:100B7000070084E80700D7F8D83003F1540407F1E0
:100B800034050FCD0FC495E8070084E80700184826
:100B900000F0ACF94FF47A7000F030FF134800F029
:100BA000B6F90021002000F0A7FE184A012306CA6A
:100BB000174800F07BFE00F06BFD0023FB6207F19D
:100BC0002C0301931C230093012380221149124816
:100BD00005F052F8C7F8D400D7F8D430012B03D170
:100BE000FB6A184605F08CF9FEE700BFDC15002013
:100BF000F41500208D0D000850160020650D00082A
:100C0000790D000894160020510D00080400002002
:100C1000346D0008446D00083D0D000880B5ACB08F
:100C200000AF07F16C0344220021184605F05BFC7D
:100C300007F1580300221A605A609A60DA601A615C
:100C40003B1D54220021184605F04DFC1823FB667D
:100C50000123C7F880300123C7F884300023C7F888
:100C600088306023C7F88C300223C7F89430012302
:100C7000C7F898300123C7F89C302823C7F8A03064
:100C80000723C7F8A4300223C7F8A8300223C7F807
:100C9000AC3007F16C03184601F0BCFD0346002B95
:100CA00001D000F01FF90F23BB650323FB65002370
:100CB0003B6600237B660023BB6607F158030421D3
:100CC000184602F0C7F90346002B01D000F00AF9DC
:100CD0000F4B7B600023BB6200233B634FF4007328
:100CE0007B653B1D184602F0EBFB0346002B01D051
:100CF00000F0F8F84FF4007001F036FD0346002BC9
:100D000001D000F0EFF800BFB037BD4680BD00BF96
:100D10004200020080B500AF002205211C2000F037
:100D200045FF1C2000F05EFF00220521092000F095
:100D30003DFF092000F056FF00BF80BD80B483B0A6
:100D400000AF786000BF0C37BD465DF8047B70478C
:100D500080B483B000AF786000BF0C37BD465DF84B
:100D6000047B704780B483B000AF786000BF0C375D
:100D7000BD465DF8047B704780B483B000AF7860F7
:100D800000BF0C37BD465DF8047B704780B582B06C
:100D900000AF78600021084803F0D8F9064B1B68C3
:100DA000054A1268D26842F00102DA6000F0E4FB02
:100DB00000BF0837BD4680BD0C17002080B586B047
:100DC00000AF7860254B1B78DBB2002B0BD14FF0C6
:100DD00080435B6B224A1360224B00221A801F4B18
:100DE00001221A7036E01D4B1B78DBB2012B31D18A
:100DF0004FF080435B6B1C4A13601A4B1B889BB2FD
:100E00001A4644F6206303FB02F31A46164B1B688E
:100E10001A44134B1B68D31A144A13607B685B682F
:100E2000134AB2FBF3F2114B1B68B2FBF3F2134609
:100E30001B019B1A9B001A460E4B1A60074B00229F
:100E40001A700C4B1B681A4607F108030A4918462A
:100E500005F052FB00BF1837BD4680BD9C00002046
:100E6000A0000020AC000020A4000020A80000206A
:100E700000B4C404B00000204C6D000880B582B0FE
:100E800000AF78607B681B68124A934202D100F081
:100E900095FD1AE07B681B68B3F1804F15D10E4BAE
:100EA0001B889BB2022B09D90C4B00221A700A4BEB
:100EB00000221A800A4B00221A6006E0064B1B88AB
:100EC0009BB201339AB2044B1A8000BF0837BD466B
:100ED00080BD00BF00100040AC0000209C0000203E
:100EE000B000002080B400AF72B6FEE780B582B0DB
:100EF00000AF78607B689B68786898477B685B6820
:100F0000184600F024F800BF0837BD4680BD80B504
:100F100082B000AF7860786800F04BF80346012B90
:100F200001D100230FE07B685B685B685B69002B85
:100F300005D07B685B685B685B6978689847786810
:100F400000F005F8012318460837BD4680BD80B57E
:100F500084B000AF78607B681B69002B03D07B688E
:100F60001B69786898470023FB8115E07B689968C6
:100F7000FA891346DB009B1A9B000B4459697B6876
:100F80009868FA891346DB009B1A9B0003441846B5
:100F90008847FB890133FB817B689B89FA899A42E8
:100FA000E4D37B685B687A685A6000BF1037BD463F
:100FB00080BD80B483B000AF78607B685B685B689D
:100FC0001A887B681B889A420CBF01230023DBB27E
:100FD00018460C37BD465DF8047B704780B586B077
:100FE00000AF3B1D00221A605A609A60DA601A61F5
:100FF00000233B60254B264A1A60244B00225A608E
:10100000224B7F229A60214BFF22DA601F4B002285
:101010001A611E4B00225A611C4B00229A611B4B25
:101020000022DA61194802F02DFD0346002B01D0A1
:10103000FFF758FF00233B7100237B710023BB7136
:1010400000233B6100237B613B1D012219460F48B1
:1010500002F093FD0346002B01D0FFF743FF01236D
:101060003B7001237B700123BB700023FB703B4668
:1010700001221946054802F01DFE0346002B01D04F
:10108000FFF730FF00BF1837BD4680BD9C1600201B
:101090000028004080B483B000AF78607B681B6894
:1010A000084A934207D1084A074BD3F8903043F4DB
:1010B0000043C2F8903000BF0C37BD465DF8047B9A
:1010C000704700BF002800400010024080B582B089
:1010D00000AF114A104B1B6E43F0010313660E4B19
:1010E0001B6E03F001037B607B680B4A0A4B9B6D10
:1010F00043F080539365084B9B6D03F080533B6036
:101100003B6800220F216FF0010000F04FFD00BF8F
:101110000837BD4680BD00BF0010024080B58CB0CE
:1011200000AF78600023FB620023BB620022796875
:10113000362000F03BFD362000F054FD1E4A1E4BC9
:101140009B6D43F0100393651B4B9B6D03F01003E5
:10115000FB60FB6807F1100207F114031146184603
:1011600002F01CF902F0EEF8F862FB6A134AA2FBE7
:1011700003239B0C013BBB62114B124A1A60104BBC
:1011800040F2E732DA600E4ABB6A53600C4B002231
:101190001A610B4B00229A60094802F0C9FE03460F
:1011A000002B04D1064802F01BFF034600E0012398
:1011B00018463037BD4680BD0010024083DE1B4319
:1011C000C01600200010004080B400AFFEE780B4DD
:1011D00000AFFEE780B400AFFEE780B400AFFEE7EB
:1011E00080B400AFFEE780B400AF00BFBD465DF83D
:1011F000047B704780B500AF082000F083FE00BF7D
:1012000080BD000080B500AF024803F0C5F800BF04
:1012100080BD00BF0C17002080B500AF024803F06E
:10122000BBF800BF80BD00BFC016002080B58CB0E9
:1012300000AF07F1200300221A605A609A60DA605A
:1012400007F1140300221A605A609A603B1D0022C5
:101250001A605A609A60DA602C4B4FF080421A6034
:101260002A4B4FF47A725A60284B00229A60274B1F
:1012700044F61F62DA60254B00221A61234B80225C
:101280009A61224802F054FE0346002B01D0FFF77A
:1012900029FE4FF480533B6207F1200319461B4897
:1012A00003F02DFA0346002B01D0FFF71BFE174871
:1012B00002F0EAFE0346002B01D0FFF713FE0023E5
:1012C0007B610023FB6107F1140319460F4803F00B
:1012D0001DFD0346002B01D0FFF704FE02237B60B7
:1012E0000123BB600023FB6000233B613B1D002208
:1012F0001946064803F06FF90346002B01D0FFF7AB
:10130000F1FD00BF3037BD4680BD00BF0C17002087
:1013100080B58AB000AF786007F1140300221A602C
:101320005A609A60DA601A617B681B68B3F1804F7B
:1013300028D1164A154B9B6D43F001039365134B5F
:101340009B6D03F001033B613B69104A0F4BDB6C63
:1013500043F00103D3640D4BDB6C03F00103FB602E
:10136000FB6801237B610223BB610023FB61012336
:101370003B6201237B6207F1140319464FF0904052
:1013800000F03EFC00BF2837BD4680BD0010024083
:1013900080B500AF144B154A1A60134B4FF4E1327D
:1013A0005A60114B00229A600F4B0022DA600E4BFC
:1013B00000221A610C4B0C225A610B4B00229A61DD
:1013C000094B0022DA61084B00221A62064B002208
:1013D0005A62054803F01EFD0346002B01D0FFF7BB
:1013E00081FD00BF80BD00BF5817002000440040B1
:1013F00080B58AB000AF786007F1140300221A604C
:101400005A609A60DA601A617B681B68204A9342CE
:101410003AD1204A1F4B9B6D43F4003393651D4B1B
:101420009B6D03F400333B613B691A4A194BDB6C3B
:1014300043F00103D364174BDB6C03F00103FB6043
:10144000FB6804237B610223BB610023FB61032350
:101450003B6207237B6207F1140319464FF090406B
:1014600000F0CEFB4FF400437B610223BB610023FD
:10147000FB6103233B6203237B6207F114031946DC
:101480004FF0904000F0BCFB00BF2837BD4680BD48
:10149000004400400010024080B400AF174A174BD0
:1014A000D3F8883043F47003C2F88830144A144BE0
:1014B0001B6843F001031360114B00229A60104A2D
:1014C0000F4B1B6823F0A85323F4102313600C4B1D
:1014D0004FF48052DA600A4A094B1B6823F48023D8
:1014E0001360074B00229A61044B4FF000629A6030
:1014F00000BFBD465DF8047B704700BF00ED00E013
:101500000010024080B400AF00BFBD465DF8047B10
:101510007047000080B586B004AF0346FB714FF002
:10152000FF33029301230193FB1D0093012300224B
:101530007821034800F098FD00BF0837BD4680BD04
:101540009015002080B586B004AF786039603B68A4
:101550009BB24FF0FF32029201937B68009301230C
:1015600040227821034800F07FFD00BF0837BD46C8
:1015700080BD00BF9015002080B500AFFFF7C2FF0F
:10158000642000F03BFA002000F0E2F92020FFF791
:10159000C1FF0020FFF7BEFFB020FFF7BBFFC82050
:1015A000FFF7B8FF0020FFF7B5FF1020FFF7B2FFED
:1015B0004020FFF7AFFFFF2000F0B6F9A120FFF7B2
:1015C000A9FFA620FFF7A6FFA820FFF7A3FF3F2053
:1015D000FFF7A0FFA420FFF79DFFD320FFF79AFF9E
:1015E0000020FFF797FFD520FFF794FFF020FFF7CB
:1015F00091FFD920FFF78EFF2220FFF78BFFDA2023
:10160000FFF788FF1220FFF785FFDB20FFF782FF3F
:101610002020FFF77FFF8D20FFF77CFF1420FFF7CE
:1016200079FF012000F094F9002000F00FF800F09D
:101630002FF8054B00221A80034B00225A80024BE0
:1016400001225A7100BF80BDB404002080B485B06F
:1016500000AF0346FB710023FB600DE0FB79002B1C
:1016600001D1002100E0FF21084AFB6813440A462B
:101670001A70FB680133FB60FB68B3F5806FEDD334
:1016800000BF1437BD465DF8047B7047B4000020EE
:1016900080B582B000AF0023FB7116E0FB79503BB0
:1016A000DBB21846FFF736FF0020FFF733FF1020AC
:1016B000FFF730FFFB79DB01074A1344802118460E
:1016C000FFF740FFFB790133FB71FB79072BE5D96D
:1016D00000BF0837BD4680BDB400002080B483B091
:1016E00000AF0346FB710B46BB7113467B7197F944
:1016F0000730002B48DBBB793F2B45D8254B1B79A6
:10170000002B06D07B79002B0CBF01230023DBB21A
:101710007B717B79012B1AD1FA79BB79DB08D8B2BE
:101720000346DB011344F9790246D2010A441A49FF
:101730008A5C51B2BA7902F00702012000FA02F283
:1017400052B20A4352B2D1B2134AD1541DE0FA79CF
:10175000BB79DB08D8B20346DB011344F9790246B2
:10176000D2010A440C498A5C51B2BA7902F00702EC
:10177000012000FA02F252B2D24352B20A4052B2EF
:10178000D1B2054AD15400E000BF0C37BD465DF828
:10179000047B7047B4040020B400002090B589B0E9
:1017A00000AF0446381D80E806001A462346FB7346
:1017B0001346BB73FB7B1F2B02D9FB7B7E2B01D90E
:1017C00000236DE0384B1B881A463B791344802B6D
:1017D00006DC354B5B881A467B791344402B01DDD0
:1017E00000235DE00023FB614CE0BA68FB7B203BFB
:1017F000797901FB03F31946FB690B445B00134441
:101800001B887B610023BB6134E07A69BB6902FA03
:1018100003F303F40043002B12D0234B1B88DAB2EE
:10182000BB69DBB21344D8B21F4B5B88DAB2FB69E9
:10183000DBB21344DBB2BA7B1946FFF74FFF16E069
:10184000194B1B88DAB2BB69DBB21344D8B2164B12
:101850005B88DAB2FB69DBB21344D9B2BB7B002BE5
:101860000CBF01230023DBB21A46FFF737FFBB6929
:101870000133BB613B791A46BB699A42C5D8FB6903
:101880000133FB617B791A46FB699A42ADD8064B5E
:101890001A883B799BB213449AB2034B1A80FB7BA4
:1018A00018462437BD4690BDB404002080B584B0EE
:1018B00000AFF860381D80E80600FB7012E0FB689E
:1018C0001878FB783A1D06CAFFF768FF03461A46E8
:1018D000FB681B789A4202D0FB681B7808E0FB6823
:1018E0000133FB60FB681B78002BE8D1FB681B7899
:1018F00018461037BD4680BD80B483B000AF0346A4
:101900000A46FB711346BB71FB799AB2054B1A80EC
:10191000BB799AB2034B5A8000BF0C37BD465DF8C5
:10192000047B7047B404002080B584B000AF034648
:10193000FB718123FB73FB7B1846FFF7EBFDFB7903
:101940001846FFF7E7FD00BF1037BD4680BD000019
:1019500080B584B000AF0346FB71FB79002B05D046
:10196000AF23FB73084B01229A7104E0AE23FB7393
:10197000054B00229A71FB7B1846FFF7CBFD00BF99
:101980001037BD4680BD00BFB404002080B582B0D2
:1019900000AF0023FB71032000F0FDF80020FFF7EB
:1019A000BDFB0346002B02D00123FB7101E0FFF7D2
:1019B0008DFBFB7918460837BD4680BD80B400AF6B
:1019C000064B1B781A46064B1B681344044A1360E7
:1019D00000BFBD465DF8047B704700BF10000020CB
:1019E000D817002080B400AF034B1B681846BD46D3
:1019F0005DF8047B704700BFD817002080B584B025
:101A000000AF7860FFF7EEFFB8607B68FB60FB68B3
:101A1000B3F1FF3F05D0094B1B781A46FB6813440E
:101A2000FB6000BFFFF7DEFF0246BB68D21AFB680F
:101A30009A42F7D300BF1037BD4680BD100000208A
:101A400080B485B000AF78607B6803F00703FB606B
:101A50000C4BDB68BB60BA684FF6FF031340BB60FA
:101A6000FB681A02BB68134343F0BF6343F40033BF
:101A7000BB60044ABB68D36000BF1437BD465DF845
:101A8000047B704700ED00E080B400AF044BDB68DE
:101A90001B0A03F007031846BD465DF8047B704738
:101AA00000ED00E080B483B000AF0346FB7197F90E
:101AB0000730002B0BDB094997F907305B09FA79EE
:101AC00002F01F02012000FA02F241F8232000BFB9
:101AD0000C37BD465DF8047B704700BF00E100E0B5
:101AE00080B483B000AF03463960FB7197F90730CB
:101AF000002B0ADB0D4997F907303A68D2B2120180
:101B0000D2B20B4483F800230AE00949FB7903F0C1
:101B10000F03043B3A68D2B21201D2B20B441A76D8
:101B200000BF0C37BD465DF8047B704700E100E064
:101B300000ED00E080B489B000AFF860B9607A6071
:101B4000FB6803F00703FB61FB69C3F10703042B88
:101B500028BF0423BB61FB690433062B02D9FB6950
:101B6000033B00E000237B610122BB6902FA03F31F
:101B70005A1EBB681A407B699A4001217B6901FAB1
:101B800003F3591E7B680B40134318462437BD46A8
:101B90005DF8047B704780B582B000AF78607868EC
:101BA000FFF74EFF00BF0837BD4680BD80B586B049
:101BB00000AF0346B9607A60FB7300237B61FFF7D7
:101BC00063FF78617A68B9687869FFF7B3FF024606
:101BD00097F90F3011461846FFF782FF00BF1837FC
:101BE000BD4680BD80B582B000AF0346FB7197F95A
:101BF00007301846FFF756FF00BF0837BD4680BDC7
:101C000080B487B000AF7860396000237B6148E121
:101C10003B681A6801217B6901FA03F31340FB60FA
:101C2000FB68002B00F03A813B685B68012B0BD00E
:101C30003B685B68022B07D03B685B68112B03D0C5
:101C40003B685B68122B30D17B689B683B617B698A
:101C50005B00032202FA03F3DB433A6913403B6162
:101C60003B68DA687B695B0002FA03F33A69134365
:101C70003B617B683A699A607B685B683B610122E3
:101C80007B6902FA03F3DB433A6913403B613B682B
:101C90005B681B0903F001027B6902FA03F33A69EE
:101CA00013433B617B683A695A607B68DB683B6140
:101CB0007B695B00032202FA03F3DB433A691340BA
:101CC0003B613B689A687B695B0002FA03F33A69FF
:101CD00013433B617B683A69DA603B685B68022BBF
:101CE00003D03B685B68122B23D17B69DA087B68E1
:101CF000083253F822303B617B6903F007039B00F5
:101D00000F2202FA03F3DB433A6913403B613B685D
:101D10001A697B6903F007039B0002FA03F33A692F
:101D200013433B617B69DA087B680832396943F801
:101D300022107B681B683B617B695B00032202FA0F
:101D400003F3DB433A6913403B613B685B6803F094
:101D500003027B695B0002FA03F33A6913433B61B8
:101D60007B683A691A603B685B6803F08053002B1C
:101D700000F09480524A524B1B6E43F001031366ED
:101D80004F4B1B6E03F00103BB60BB684D4A7B6980
:101D90009B08023352F823303B617B6903F0030355
:101DA0009B000F2202FA03F3DB433A6913403B61C5
:101DB0007B68B3F1904F0DD07B68434A934207D0C4
:101DC0007B68424A934201D1022304E0072302E0E8
:101DD000012300E000237A6902F00302920093409D
:101DE0003A6913433B6137497B699B0802333A697F
:101DF00041F82320364B1B683B61FB68DB433A69A3
:101E000013403B613B685B6803F48033002B03D0D5
:101E10003A69FB6813433B612D4A3B6913602C4BC5
:101E20005B683B61FB68DB433A6913403B613B689D
:101E30005B6803F40033002B03D03A69FB6813435B
:101E40003B61234A3B695360214B9B683B61FB68C4
:101E5000DB433A6913403B613B685B6803F48013E2
:101E6000002B03D03A69FB6813433B61184A3B6976
:101E70009360174BDB683B61FB68DB433A691340B7
:101E80003B613B685B6803F40013002B03D03A69A5
:101E9000FB6813433B610E4A3B69D3607B690133A6
:101EA0007B613B681A687B6922FA03F3002B7FF49D
:101EB000AFAE00BF1C37BD465DF8047B704700BF66
:101EC00000100240000001400004004800080048E3
:101ED0000004014080B483B000AF78600B467B8083
:101EE00013467B707B78002B03D07A887B689A61DD
:101EF00002E07A887B689A6200BF0C37BD465DF8C5
:101F0000047B704780B582B000AF0346FB80084B6E
:101F10005A69FB881340002B06D0054AFB885361A1
:101F2000FB88184600F006F800BF0837BD4680BDA4
:101F30000004014080B483B000AF0346FB8000BFC3
:101F40000C37BD465DF8047B704780B582B000AFAA
:101F500078607B68002B01D1012380E07B6893F8D7
:101F60004130DBB2002B06D17B68002283F8402091
:101F70007868FEF737FC7B68242283F841207B6871
:101F80001B687A681268126822F001021A607B6886
:101F90001B687A68526822F070621A617B681B685D
:101FA0007A681268926822F400429A607B68DB6863
:101FB000012B07D17B681B687A68926842F4004263
:101FC0009A6006E07B681B687A68926842F4044273
:101FD0009A607B68DB68022B04D17B681B684FF436
:101FE00000625A607B681A687B681B685B6843F014
:101FF000007343F4004353607B681B687A6812687F
:10200000D26822F40042DA607B681B687A68116942
:102010007A68526911437A68926912020A43DA6057
:102020007B681B687A68D1697A68126A0A431A6009
:102030007B681B687A681268126842F001021A60B5
:102040007B6800225A647B68202283F841207B68E9
:1020500000221A637B68002283F84220002318467E
:102060000837BD4680BD000080B588B002AFF8607B
:10207000084611461A4603467B810B463B811346B0
:10208000FB80FB6893F84130DBB2202B40F0F980F5
:102090003B6A002B02D0BB8C002B05D1FB684FF4B0
:1020A00000725A640123EDE0FB6893F84030012B85
:1020B00001D10223E6E0FB68012283F84020FFF70C
:1020C00091FC78617B690093192301224FF4004150
:1020D000F86800F055F90346002B01D00123D1E048
:1020E000FB68212283F84120FB68402283F84220CC
:1020F000FB6800225A64FB683A6A5A62FB68BA8C31
:102100005A85FB6800225A63F8883A8979897B6985
:102110000193BB6A00930346F86800F0B9F80346E0
:10212000002B05D0FB68002283F840200123A9E0A2
:10213000FB685B8D9BB2FF2B0ED9FB68FF221A85D3
:10214000FB681B8DDAB27989002300934FF080730E
:10215000F86800F037FA0FE0FB685B8D9AB2FB6815
:102160001A85FB681B8DDAB27989002300934FF042
:102170000073F86800F026FA7A69B96AF86800F026
:102180003FF90346002B01D001237BE0FB681B686D
:10219000FA68526A12789A62FB685B6A5A1CFB689A
:1021A0005A62FB685B8D9BB2013B9AB2FB685A8511
:1021B000FB681B8D013B9AB2FB681A85FB685B8D3F
:1021C0009BB2002B34D0FB681B8D002B30D17B6978
:1021D0000093BB6A00228021F86800F0D1F8034622
:1021E000002B01D001234DE0FB685B8D9BB2FF2BE0
:1021F0000ED9FB68FF221A85FB681B8DDAB279893C
:10220000002300934FF08073F86800F0DBF90FE0D3
:10221000FB685B8D9AB2FB681A85FB681B8DDAB28E
:102220007989002300934FF00073F86800F0CAF931
:10223000FB685B8D9BB2002B9ED17A69B96AF86806
:1022400000F01EF90346002B01D001231AE0FB68C1
:102250001B682022DA61FB681A68FB681B685968F2
:102260000A4B0B405360FB68202283F84120FB6837
:10227000002283F84220FB68002283F840200023DC
:1022800000E0022318461837BD4680BD00E800FE76
:1022900080B586B002AFF860084611461A4603467C
:1022A0007B810B463B811346FB80FB88DAB2798940
:1022B000204B00934FF08073F86800F083F9FA69BF
:1022C000B969F86800F09CF80346002B01D001239F
:1022D0002CE0FB88012B05D1FB681B683A89D2B240
:1022E0009A6215E0FB681B683A89120A92B2D2B270
:1022F0009A62FA69B969F86800F082F80346002B1F
:1023000001D0012312E0FB681B683A89D2B29A62BD
:10231000FB690093BB6900228021F86800F030F867
:102320000346002B01D0012300E00023184610379C
:10233000BD4680BD0020008080B483B000AF7860CF
:102340007B681B689B6903F00203022B03D17B6847
:102350001B6800229A627B681B689B6903F001037B
:10236000012B07D07B681B687A681268926942F07B
:1023700001029A6100BF0C37BD465DF8047B7047CF
:1023800080B584B000AFF860B9603B601346FB7164
:1023900022E03B68B3F1FF3F1ED0FFF723FB02466C
:1023A000BB69D21A3B689A4202D83B68002B13D112
:1023B000FB685B6C43F02002FB685A64FB682022D8
:1023C00083F84120FB68002283F84220FB6800224A
:1023D00083F8402001230FE0FB681B689A69BB6803
:1023E0001A40BB689A420CBF01230023DBB21A4695
:1023F000FB799A42CDD0002318461037BD4680BDE8
:1024000080B584B000AFF860B9607A602CE07A687B
:10241000B968F86800F070F80346002B01D001237A
:102420002AE0BB68B3F1FF3F1ED0FFF7DBFA02469C
:102430007B68D21ABB689A4202D8BB68002B13D1C2
:10244000FB685B6C43F02002FB685A64FB68202247
:1024500083F84120FB68002283F84220FB680022B9
:1024600083F84020012307E0FB681B689B6903F0A9
:102470000203022BCBD1002318461037BD4680BD86
:1024800080B584B000AFF860B9607A6028E07A68FF
:10249000B968F86800F030F80346002B01D001233A
:1024A00026E0FFF79FFA02467B68D21ABB689A4281
:1024B00002D8BB68002B13D1FB685B6C43F0200291
:1024C000FB685A64FB68202283F84120FB680022E5
:1024D00083F84220FB68002283F84020012307E0B4
:1024E000FB681B689B6903F02003202BCFD10023DE
:1024F00018461037BD4680BD80B584B000AFF86087
:10250000B9607A60FB681B689B6903F01003102BAD
:1025100051D122E0BB68B3F1FF3F1ED0FFF762FA52
:1025200002467B68D21ABB689A4202D8BB68002B6D
:1025300013D1FB685B6C43F02002FB685A64FB68B4
:10254000202283F84120FB68002283F84220FB68A8
:10255000002283F8402001232EE0FB681B689B6962
:1025600003F02003202BD5D1FB681B681022DA6111
:10257000FB681B682022DA61F868FFF7DDFEFB6864
:102580001A68FB681B6859680D4B0B405360FB6869
:102590005B6C43F00402FB685A64FB68202283F8FA
:1025A0004120FB68002283F84220FB68002283F868
:1025B0004020012300E0002318461037BD4680BDAF
:1025C00000E800FE80B485B000AFF8607B600B4689
:1025D0007B8113467B72FB681A68FB681B6859682D
:1025E000BB695B0D03F480600B4B0343DB43194075
:1025F0007B89C3F309007B7A1B0403F47F03184330
:102600007B681843BB6903430B43536000BF143717
:10261000BD465DF8047B7047FF63FF0380B483B061
:1026200000AF786039607B6893F84130DBB2202BD3
:1026300038D17B6893F84030012B01D1022332E07E
:102640007B68012283F840207B68242283F84120A4
:102650007B681B687A681268126822F001021A60AF
:102660007B681B687A681268126822F480521A60CC
:102670007B681B687A68126811683A680A431A60B6
:102680007B681B687A681268126842F001021A605F
:102690007B68202283F841207B68002283F8402059
:1026A000002300E0022318460C37BD465DF8047B8A
:1026B000704780B485B000AF786039607B6893F86C
:1026C0004130DBB2202B39D17B6893F84030012BAD
:1026D00001D1022333E07B68012283F840207B682C
:1026E000242283F841207B681B687A68126812688C
:1026F00022F001021A607B681B681B68FB60FB68A4
:1027000023F47063FB603B681B02FA681343FB60B1
:102710007B681B68FA681A607B681B687A681268B5
:10272000126842F001021A607B68202283F841207F
:102730007B68002283F84020002300E00223184633
:102740001437BD465DF8047B7047000080B400AFCD
:10275000044B1B6803F4C0631846BD465DF8047B58
:10276000704700BF0070004080B485B000AF786053
:102770007B68B3F5007F30D1234B1B6803F4C06343
:10278000B3F5007F38D0204A1F4B1B6823F4C06389
:1027900043F4007313601D4B1B68322202FB03F3EA
:1027A0001B4AA2FB03239B0C0133FB6002E0FB6886
:1027B000013BFB60144B5B6903F48063B3F5806FEE
:1027C00002D1FB68002BF2D10F4B5B6903F48063ED
:1027D000B3F5806F10D103230FE00B4B1B6803F49C
:1027E000C063B3F5806F07D0074A074B1B6823F41B
:1027F000C06343F480631360002318461437BD465A
:102800005DF8047B704700BF0070004000000020AE
:1028100083DE1B4380B588B000AF78607B68002BF7
:1028200002D1012300F011BCA04B9B6803F00C0304
:10283000BB619E4BDB6803F003037B617B681B6815
:1028400003F01003002B00F0E480BB69002B07D0DD
:10285000BB690C2B40F08B807B69012B40F087809B
:10286000924B1B6803F00203002B05D07B689B6929
:10287000002B01D10123E8E37B681A6A8B4B1B68AC
:1028800003F00803002B04D0884B1B6803F0F0030F
:1028900005E0864BD3F894301B0903F0F0039A420D
:1028A00023D97B681B6A184600F0AAFD0346002B5B
:1028B00001D00123C9E37D4A7C4B1B6843F0080328
:1028C00013607A49794B1B6823F0F0027B681B6A1E
:1028D00013430B607549754B5B6823F47F427B683B
:1028E000DB691B0213434B6025E0704A6F4B1B688A
:1028F00043F0080313606D496C4B1B6823F0F00232
:102900007B681B6A13430B606849684B5B6823F460
:102910007F427B68DB691B0213434B60BB69002B62
:1029200009D17B681B6A184600F06AFD0346002B3C
:1029300001D0012389E300F06FFC01465B4B9B68EB
:102940001B0903F00F035A4AD35C03F01F0321FA5B
:1029500003F3584A1360584B1B681846FEF7DEFB1A
:102960000346FB73FB7B002B52D0FB7B6DE37B6844
:102970009B69002B32D04D4A4C4B1B6843F001033E
:102980001360FFF72FF8386108E0FFF72BF80246D5
:102990003B69D31A022B01D9032356E3434B1B682F
:1029A00003F00203002BF0D0404A404B1B6843F079
:1029B000080313603D493D4B1B6823F0F0027B6820
:1029C0001B6A13430B603949384B5B6823F47F4221
:1029D0007B68DB691B0213434B601AE0334A334BBD
:1029E0001B6823F001031360FEF7FCFF386108E069
:1029F000FEF7F8FF02463B69D31A022B01D90323E5
:102A000023E32A4B1B6803F00203002BF0D100E004
:102A100000BF7B681B6803F00103002B73D0BB6908
:102A2000082B05D0BB690C2B0ED17B69032B0BD176
:102A30001E4B1B6803F40033002B63D07B685B687C
:102A4000002B5FD1012300E37B685B68B3F5803F17
:102A500006D1164A154B1B6843F4803313601DE002
:102A60007B685B68B3F5A02F0CD1104A0F4B1B6835
:102A700043F4802313600D4A0C4B1B6843F48033EE
:102A800013600BE0094A094B1B6823F48033136081
:102A9000064A064B1B6823F4802313607B685B683F
:102AA000002B1BD0FEF79EFF386110E000100240A3
:102AB000586D0008000000200C000020FEF792FF77
:102AC00002463B69D31A642B01D90323BDE2AF4B05
:102AD0001B6803F40033002BF0D014E0FEF782FFF4
:102AE000386108E0FEF77EFF02463B69D31A642B8B
:102AF00001D90323A9E2A54B1B6803F40033002B83
:102B0000F0D100E000BF7B681B6803F00203002BDC
:102B100060D0BB69042B05D0BB690C2B19D17B6934
:102B2000022B16D1994B1B6803F48063002B05D050
:102B30007B68DB68002B01D1012386E29349934B2C
:102B40005B6823F0FE427B681B691B0613434B60E6
:102B500040E07B68DB68002B23D08C4A8B4B1B68E2
:102B600043F480731360FEF73DFF386108E0FEF721
:102B700039FF02463B69D31A022B01D9032364E2D1
:102B8000824B1B6803F48063002BF0D07F497F4B9E
:102B90005B6823F0FE427B681B691B0613434B6096
:102BA00018E07A4A794B1B6823F480731360FEF7B0
:102BB00019FF386108E0FEF715FF02463B69D31A9A
:102BC000022B01D9032340E2704B1B6803F480639E
:102BD000002BF0D17B681B6803F00803002B3CD06E
:102BE0007B685B69002B1CD0684A684BD3F8943033
:102BF00043F00103C2F89430FEF7F4FE386108E0B8
:102C0000FEF7F0FE02463B69D31A022B01D90323DB
:102C10001BE25E4BD3F8943003F00203002BEFD09D
:102C20001BE05A4A594BD3F8943023F00103C2F801
:102C30009430FEF7D7FE386108E0FEF7D3FE024677
:102C40003B69D31A022B01D90323FEE14F4BD3F882
:102C5000943003F00203002BEFD17B681B6803F074
:102C60000403002B00F0A6800023FB77474B9B6DED
:102C700003F08053002B0DD1444A444B9B6D43F02D
:102C800080539365414B9B6D03F08053BB60BB68E1
:102C90000123FB773E4B1B6803F48073002B18D194
:102CA0003B4A3B4B1B6843F480731360FEF79AFE6C
:102CB000386108E0FEF796FE02463B69D31A022B04
:102CC00001D90323C1E1324B1B6803F48073002B4D
:102CD000F0D07B689B68012B08D12C4A2B4BD3F892
:102CE000903043F00103C2F8903024E07B689B6889
:102CF000052B10D1254A254BD3F8903043F004031F
:102D0000C2F89030214A214BD3F8903043F00103B0
:102D1000C2F890300FE01D4A1C4BD3F8903023F0DE
:102D20000103C2F89030194A184BD3F8903023F0C1
:102D30000403C2F890307B689B68002B16D0FEF726
:102D400051FE38610AE0FEF74DFE02463B69D31A98
:102D500041F28832934201D9032376E10B4BD3F839
:102D6000903003F00203002BEDD01AE0FEF73AFE9C
:102D700038610FE0FEF736FE02463B69D31A41F296
:102D80008832934206D903235FE100BF001002405E
:102D900000700040AA4BD3F8903003F00203002BE0
:102DA000E8D1FB7F012B05D1A54AA54B9B6D23F0F4
:102DB000805393657B681B6803F02003002B3CD095
:102DC0007B685B6A002B1CD09D4A9D4BD3F89830E2
:102DD00043F00103C2F89830FEF704FE386108E0C2
:102DE000FEF700FE02463B69D31A022B01D90323EA
:102DF0002BE1934BD3F8983003F00203002BEFD074
:102E00001BE08F4A8E4BD3F8983023F00103C2F8B1
:102E10009830FEF7E7FD386108E0FEF7E3FD024673
:102E20003B69D31A022B01D903230EE1844BD3F85B
:102E3000983003F00203002BEFD17B689B6A002BD4
:102E400000F002817B689B6A022B40F0C5807C4BBE
:102E5000DB687B617B6903F003027B68DB6A9A4273
:102E60002CD17B6903F070027B681B6B013B1B015B
:102E70009A4223D17B6903F4FE427B685B6B1B02A1
:102E80009A421BD17B6903F078427B689B6BDB061F
:102E90009A4213D17B6903F4C0027B68DB6B5B0849
:102EA000013B5B059A4209D17B6903F0C0627B68F4
:102EB0001B6C5B08013B5B069A4267D0BB690C2B1D
:102EC00062D05F4B1B6803F08063002B01D00123AD
:102ED000BBE05B4A5A4B1B6823F080731360FEF71C
:102EE00081FD386108E0FEF77DFD02463B69D31A9B
:102EF000022B01D90323A8E0514B1B6803F0007398
:102F0000002BF0D14E484E4BDA684E4B13407A6896
:102F1000D16A7A68126B013A120111437A68526BD6
:102F2000120211437A68D26B5208013A52051143DA
:102F30007A68126C5208013A520611437A68926B11
:102F4000D2060A431343C3603D4A3D4B1B6843F01E
:102F5000807313603A4A3A4BDB6843F08073D36066
:102F6000FEF740FD386108E0FEF73CFD02463B6994
:102F7000D31A022B01D9032367E0314B1B6803F0FE
:102F80000073002BF0D05FE001235EE02C4B1B6848
:102F900003F00073002B57D1294A294B1B6843F0DB
:102FA00080731360264A264BDB6843F08073D3603E
:102FB000FEF718FD386108E0FEF714FD02463B6994
:102FC000D31A022B01D903233FE01D4B1B6803F0EA
:102FD0000073002BF0D037E0BB690C2B2DD0184AC2
:102FE000174B1B6823F080731360154B1B6803F0AD
:102FF0000063002B05D1124A114BDB6823F0030359
:10300000D3600F4A0E4BDB6823F0887323F48033C0
:10301000D360FEF7E7FC386108E0FEF7E3FC024608
:103020003B69D31A022B01D903230EE0044B1B6822
:1030300003F00073002BF0D106E0012305E000BF90
:10304000001002408C809D01002318462037BD46A9
:1030500080BD00BF80B584B000AF786039607B6808
:10306000002B01D10123C8E0664B1B6803F0070267
:103070003B689A4210D26349624B1B6823F00702F7
:103080003B6813430B605F4B1B6803F007023B6810
:103090009A4201D00123B0E07B681B6803F0010372
:1030A000002B4CD07B685B68032B07D1564B1B6809
:1030B00003F00073002B21D101239EE07B685B6845
:1030C000022B07D1504B1B6803F40033002B15D1A2
:1030D000012392E07B685B68002B07D14A4B1B6899
:1030E00003F00203002B09D1012386E0464B1B6845
:1030F00003F48063002B01D101237EE04249424B5F
:103100009B6823F003027B685B6813438B60FEF7C8
:1031100069FCF8600AE0FEF765FC0246FB68D31A1A
:1031200041F28832934201D9032366E0364B9B6813
:1031300003F00C027B685B689B009A42EBD17B68D2
:103140001B6803F00203002B08D02F492E4B9B680D
:1031500023F0F0027B689B6813438B60294B1B684C
:1031600003F007023B689A4210D92649254B1B6899
:1031700023F007023B6813430B60224B1B6803F0EC
:1031800007023B689A4201D0012336E07B681B6846
:1031900003F00403002B08D01B491B4B9B6823F44E
:1031A000E0627B68DB6813438B607B681B6803F01D
:1031B0000803002B09D01449134B9B6823F4605279
:1031C0007B681B69DB0013438B6000F025F8014628
:1031D0000D4B9B681B0903F00F030C4AD35C03F0F3
:1031E0001F0321FA03F30A4A13600A4B1B681846AF
:1031F000FDF794FF0346FB72FB7A18461037BD4675
:1032000080BD00BF0020024000100240586D000841
:10321000000000200C00002080B489B000AF002323
:10322000FB610023BB613D4B9B6803F00C033B61DA
:103230003A4BDB6803F00303FB603B69002B05D0CE
:103240003B690C2B21D1FB68012B1ED1334B1B6832
:1032500003F00803002B07D1304BD3F894301B0A3E
:1032600003F00F03FB6105E02C4B1B681B0903F007
:103270000F03FB612A4AFB6952F82330FB613B696B
:10328000002B0DD1FB69BB610AE03B69042B02D125
:10329000244BBB6104E03B69082B01D1224BBB618D
:1032A0003B690C2B33D11D4BDB6803F00303BB6080
:1032B000BB68022B02D0032B03D005E0194B7B61C6
:1032C00005E0194B7B6102E0FB697B6100BF134B9A
:1032D000DB681B0903F0070301337B600F4BDB68DE
:1032E0001B0A03F07F037A6902FB03F27B68B2FBDF
:1032F000F3F37B61094BDB685B0E03F003030133DF
:103300005B003B607A693B68B2FBF3F3BB61BB696E
:1033100018462437BD465DF8047B70470010024014
:10332000706D00080024F40000127A0080B400AF31
:10333000034B1B681846BD465DF8047B704700BF11
:103340000000002080B500AFFFF7F0FF0146064BFC
:103350009B681B0A03F00703044AD35C03F01F03B6
:1033600021FA03F3184680BD00100240686D000882
:1033700080B500AFFFF7DAFF0146064B9B68DB0A1A
:1033800003F00703044AD35C03F01F0321FA03F39D
:10339000184680BD00100240686D000880B483B0FC
:1033A00000AF786039607B680F221A60124B9B680F
:1033B00003F003027B685A600F4B9B6803F0F00236
:1033C0007B689A600C4B9B6803F4E0627B68DA6070
:1033D000094B9B68DB0803F4E0627B681A61074BCA
:1033E0001B6803F007023B681A6000BF0C37BD463C
:1033F0005DF8047B704700BF0010024000200240CF
:1034000080B586B000AF786000233B612A4B9B6D8E
:1034100003F08053002B03D0FFF798F9786114E094
:10342000254A254B9B6D43F080539365224B9B6D42
:1034300003F08053FB60FB68FFF788F978611E4A50
:103440001D4B9B6D23F0805393657B69B3F5007F23
:103450000BD17B68802B19D97B68A02B02D9022362
:103460003B6113E001233B6110E07B68802B02D9B4
:1034700003233B610AE07B68802B02D102233B617E
:1034800004E07B68702B01D101233B610B490B4B9E
:103490001B6823F007023B6913430B60074B1B6853
:1034A00003F007023B699A4201D0012300E00023A8
:1034B00018461837BD4680BD00100240002002406B
:1034C00080B586B000AF78600023FB740023BB7426
:1034D0007B681B6803F40063002B2FD07B68DB6BD9
:1034E000B3F5000F05D0B3F5400F15D0002B07D072
:1034F0000FE0AC4AAB4BDB6843F48033D3600CE0A5
:103500007B6804330021184600F0CCF90346FB74B5
:1035100003E00123FB7400E000BFFB7C002B0BD118
:10352000A049A04BD3F8883023F440027B68DB6BC2
:103530001343C1F8883001E0FB7CBB747B681B68D7
:1035400003F40033002B00F0998000237B74954B2B
:103550009B6D03F08053002B01D1012300E0002379
:10356000002B0DD08F4A8F4B9B6D43F0805393659A
:103570008C4B9B6D03F08053BB60BB6801237B7455
:10358000894A894B1B6843F480731360FEF72AFA5B
:10359000F86009E0FEF726FA0246FB68D31A022B10
:1035A00002D90323FB7405E07F4B1B6803F480738F
:1035B000002BEFD0FB7C002B55D17A4BD3F8903009
:1035C00003F440737B617B69002B1ED07B681A6D0E
:1035D0007B699A4219D0734BD3F8903023F440732F
:1035E0007B61704A6F4BD3F8903043F48033C2F85C
:1035F00090306C4A6B4BD3F8903023F48033C2F890
:103600009030684A7B69C2F890307B6903F001030F
:10361000002B16D0FEF7E6F9F8600BE0FEF7E2F9B2
:103620000246FB68D31A41F28832934202D903233F
:10363000FB7406E05B4BD3F8903003F00203002BE1
:10364000ECD0FB7C002B0BD15649564BD3F8903075
:1036500023F440727B681B6D1343C1F8903004E083
:10366000FB7CBB7401E0FB7CBB747B7C012B05D134
:103670004C4A4C4B9B6D23F0805393657B681B68D1
:1036800003F00103002B0AD04649464BD3F888309B
:1036900023F003027B681B6A1343C1F888307B6800
:1036A0001B6803F00203002B0AD03E493D4BD3F8C0
:1036B000883023F00C027B685B6A1343C1F88830C2
:1036C0007B681B6803F02003002B0AD03549354B7B
:1036D000D3F8883023F440627B689B6A1343C1F8B7
:1036E00088307B681B6803F40073002B0AD02D49D7
:1036F0002C4BD3F8883023F440227B685B6B134358
:10370000C1F888307B681B6803F48063002B0AD003
:103710002449244BD3F8883023F440127B689B6BF8
:103720001343C1F888307B681B6803F04003002B0B
:103730000AD01C491B4BD3F8883023F440527B68D5
:10374000DB6A1343C1F888307B681B6803F480731D
:10375000002B0AD01349134BD3F8883023F440329E
:103760007B681B6B1343C1F888307B681B6803F4CC
:103770000053002B2CD00B490A4BD3F8883023F090
:1037800040627B681B6C1343C1F888307B681B6CFC
:10379000B3F1006F0AD1034A024BDB6843F4801394
:1037A000D36015E000100240007000407B681B6C85
:1037B000B3F1806F0CD17B6804330121184600F00F
:1037C00071F80346FB74FB7C002B01D0FB7CBB74BF
:1037D0007B681B6803F48023002B28D03049304BD2
:1037E000D3F8883023F040627B685B6C1343C1F8E8
:1037F00088307B685B6CB3F1006F06D1284A284B98
:10380000DB6843F48013D36011E07B685B6CB3F139
:10381000806F0CD17B6804330121184600F042F818
:103820000346FB74FB7C002B01D0FB7CBB747B68E4
:103830001B6803F48043002B1CD01949184BD3F8A4
:10384000883023F040527B689B6C1343C1F888306A
:103850007B689B6CB3F1805F0CD17B6804330221E1
:10386000184600F01FF80346FB74FB7C002B01D0C8
:10387000FB7CBB747B681B6803F40043002B0AD0FD
:103880000749074BD3F8883023F080427B68DB6C14
:103890001343C1F88830BB7C18461837BD4680BD3D
:1038A0000010024080B584B000AF7860396000231A
:1038B000FB73734BDB6803F00303002B18D0704BD2
:1038C000DB6803F003027B681B689A420DD17B68BA
:1038D0001B68002B09D06A4BDB681B0903F0070348
:1038E0005A1C7B685B689A4244D00123FB7341E019
:1038F0007B681B68022B0CD0032B13D0012B20D12B
:103900005F4B1B6803F00203002B1DD10123FB73E7
:103910001AE05B4B1B6803F48063002B16D1012374
:10392000FB7313E0564B1B6803F40033002B0FD1DD
:10393000534B1B6803F48023002B09D10123FB7335
:1039400006E00123FB7304E000BF02E000BF00E0DB
:1039500000BFFB7B002B0DD14948494BDB6823F0AE
:1039600073027B6819687B685B68013B1B010B4332
:103970001343C360FB7B002B7CD1414A404B1B6847
:1039800023F080631360FEF72DF8B86009E0FEF7BE
:1039900029F80246BB68D31A022B02D90323FB7312
:1039A00005E0374B1B6803F00063002BEFD1FB7B76
:1039B000002B5FD13B68002B10D13148304B1B6985
:1039C00023F0784323F4FE437A68926811027A6800
:1039D000D268D2060A431343036127E03B68012BF8
:1039E00012D12748264B1B6923F4C00323F4FE435E
:1039F0007A68926811027A6812695208013A52058F
:103A00000A431343036111E01D481D4B1B6923F05A
:103A1000C06323F4FE437A68926811027A6852699F
:103A20005208013A52060A4313430361144A144BE5
:103A30001B6843F080631360FDF7D4FFB86009E0B2
:103A4000FDF7D0FF0246BB68D31A022B02D903232D
:103A5000FB7305E00A4B1B6803F00063002BEFD0FB
:103A6000FB7B002B06D10649054B1A697B689B69D5
:103A700013430B61FB7B18461037BD4680BD00BF6A
:103A80000010024080B584B000AF78600123FB7362
:103A90007B68002B6CD07B6893F82130DBB2002B65
:103AA00006D17B68002283F820207868FDF7F2FABF
:103AB0007B68022283F821207B681B68CA225A6235
:103AC0007B681B6853225A62786800F0A0F90346AD
:103AD000FB73FB7B002B4BD17B681A687B681B68F0
:103AE0009B6823F4E00323F0400393607B681B682A
:103AF0007A68126891687A6850687A681269104327
:103B00007A68926902430A439A607B681B687A6804
:103B1000D2681A617B681B687A68126811697A68D2
:103B2000926812040A431A61786800F0A3F9034608
:103B3000FB73FB7B002B1BD17B681B687A681268C8
:103B4000D26C22F00302DA647B681B687A68126820
:103B5000D16C7A68D0697A68526902430A43DA64A0
:103B60007B681B68FF225A627B68012283F8212050
:103B7000FB7B18461037BD4680BD90B587B000AFBF
:103B8000F860B9607A60FB6893F82030012B01D1AE
:103B900002238BE0FB68012283F82020FB680222CD
:103BA00083F82120FB681B68CA225A62FB681B68E5
:103BB00053225A62F86800F02AF90346FB74FB7C32
:103BC000002B63D17B68002B26D1FB681B689B68A8
:103BD00003F04003002B02D1BB680022DA70BB68FF
:103BE0001B78184600F084F903461C04BB685B7818
:103BF000184600F07DF903461B021C43BB689B7806
:103C0000184600F075F9034644EA0302BB68DB7806
:103C10009B0513437B6118E0FB681B689B6803F0FE
:103C20004003002B02D1BB680022DA70BB681B780E
:103C30001A04BB685B781B021343BA6892781A4374
:103C4000BB68DB789B0513437B61FB681A687B6963
:103C500003F07F3323F0FE431360FB681B68FA68B0
:103C60001268926822F480229A60FB681B68FA68E6
:103C700012689168BA68D068BA68126902430A4348
:103C80009A60F86800F0F6F80346FB74FB681B685E
:103C9000FF225A62FB7C002B03D1FB68012283F8D0
:103CA0002120FB68002283F82020FB7C18461C376B
:103CB000BD4690BD90B587B000AFF860B9607A603E
:103CC000FB6893F82030012B01D1022375E0FB68DB
:103CD000012283F82020FB68022283F821207B68E0
:103CE000002B0ED1BB685B7803F01003002B08D0CB
:103CF000BB685B7823F01003DBB20A33DAB2BB682F
:103D00005A707B68002B1CD1BB68DB78184600F02A
:103D1000EFF803461C04BB685B78184600F0E8F82F
:103D200003461B021C43BB689B78184600F0E0F872
:103D3000034644EA0302BB681B785B0313437B61C1
:103D40000EE0BB68DB781A04BB685B781B02134388
:103D5000BA6892781A43BB681B785B0313437B6194
:103D6000FB681B68CA225A62FB681B6853225A62AE
:103D7000F86800F04CF80346FB74FB7C002B0CD178
:103D8000FB681A687B6923F07F4323F0C00353600C
:103D9000F86800F06FF80346FB74FB681B68FF22AD
:103DA0005A62FB7C002B03D1FB68012283F821209F
:103DB000FB68002283F82020FB7C18461C37BD4698
:103DC00090BD80B584B000AF78607B681B687A686E
:103DD0001268D26822F0A002DA60FDF703FEF860F4
:103DE00009E0FDF7FFFD0246FB68D31AB3F57A7FC1
:103DF00001D9032307E07B681B68DB6803F020031D
:103E0000002BEED0002318461037BD4680BD80B58C
:103E100084B000AF78600023FB737B681B68DB68AD
:103E200003F04003002B20D17B681B684FF0FF326A
:103E3000DA60FDF7D7FDB8600DE0FDF7D3FD02466F
:103E4000BB68D31AB3F57A7F05D90323FB737B686C
:103E5000032283F821207B681B68DB6803F04003A2
:103E6000002B02D1FB7B032BE7D1FB7B18461037DD
:103E7000BD4680BD80B584B000AF78600023FB7381
:103E80001A4A1A4BDB6823F08003D360174B9B68F8
:103E900003F02003002B0CD17868FFF792FF034654
:103EA000002B1ED07B68032283F821200323FB73A1
:103EB00017E00E4A0D4B9B6823F02003936078684F
:103EC000FFF77FFF0346002B05D07B68032283F8B2
:103ED00021200323FB73054A044B9B6843F0200316
:103EE0009360FB7B18461037BD4680BD002800401C
:103EF00080B485B000AF0346FB710023FB60FB7903
:103F0000FB7205E0FB680133FB60FB7A0A3BFB7246
:103F1000FB7A092BF6D8FB68DBB21B01DAB2FB7A1D
:103F20001343DBB218461437BD465DF8047B704777
:103F300080B582B000AF78607B68002B01D101238F
:103F400049E07B6893F83D30DBB2002B06D17B68FB
:103F5000002283F83C207868FDF7DAF97B680222BA
:103F600083F83D207B681A687B6804331946104645
:103F700000F09CFC7B68012283F848207B680122CA
:103F800083F83E207B68012283F83F207B68012272
:103F900083F840207B68012283F841207B6801225E
:103FA00083F842207B68012283F843207B6801224A
:103FB00083F844207B68012283F845207B68012236
:103FC00083F846207B68012283F847207B68012222
:103FD00083F83D20002318460837BD4680BD000009
:103FE00080B485B000AF78607B6893F83D30DBB279
:103FF000012B01D001233BE07B68022283F83D20A6
:104000007B681B687A681268D26842F00102DA6045
:104010007B681B68194A934209D07B681B68B3F11F
:10402000804F04D07B681B68154A934215D17B688A
:104030001B689A68134B1340FB60FB68062B15D076
:10404000FB68B3F5803F11D07B681B687A68126803
:10405000126842F001021A6008E07B681B687A6807
:104060001268126842F001021A6000E000BF0023EB
:1040700018461437BD465DF8047B7047002C01409C
:10408000004001400700010080B582B000AF7860B9
:104090007B68002B01D1012349E07B6893F83D3018
:1040A000DBB2002B06D17B68002283F83C207868C5
:1040B00000F041F87B68022283F83D207B681A6893
:1040C0007B6804331946104600F0F0FB7B68012240
:1040D00083F848207B68012283F83E207B68012218
:1040E00083F83F207B68012283F840207B6801220F
:1040F00083F841207B68012283F842207B680122FB
:1041000083F843207B68012283F844207B680122E6
:1041100083F845207B68012283F846207B680122D2
:1041200083F847207B68012283F83D20002318464E
:104130000837BD4680BD80B483B000AF786000BF53
:104140000C37BD465DF8047B7047000080B584B035
:1041500000AF786039603B68002B04D17B6893F82E
:104160003E30DBB223E03B68042B04D17B6893F83C
:104170003F30DBB21BE03B68082B04D17B6893F82F
:104180004030DBB213E03B680C2B04D17B6893F822
:104190004130DBB20BE03B68102B04D17B6893F815
:1041A0004230DBB203E07B6893F84330DBB2FB7351
:1041B0003B68002B04D17B6893F84430DBB213E0FA
:1041C0003B68042B04D17B6893F84530DBB20BE0ED
:1041D0003B68082B04D17B6893F84630DBB203E0E0
:1041E0007B6893F84730DBB2BB73FB7B012B02D1BA
:1041F000BB7B012B01D00123C4E03B68002B04D121
:104200007B68022283F83E2023E03B68042B04D124
:104210007B68022283F83F201BE03B68082B04D117
:104220007B68022283F8402013E03B680C2B04D10A
:104230007B68022283F841200BE03B68102B04D1FD
:104240007B68022283F8422003E07B68022283F825
:1042500043203B68002B04D17B68022283F8442072
:1042600013E03B68042B04D17B68022283F84520CD
:104270000BE03B68082B04D17B68022283F84620C0
:1042800003E07B68022283F847203B680C2B41D86F
:1042900001A252F823F000BFCD42000815430008E8
:1042A0001543000815430008DF42000815430008C5
:1042B0001543000815430008F142000815430008A3
:1042C0001543000815430008034300087B681B687A
:1042D0007A681268D26842F00202DA601BE07B68FA
:1042E0001B687A681268D26842F00402DA6012E051
:1042F0007B681B687A681268D26842F00802DA604C
:1043000009E07B681B687A681268D26842F0100284
:10431000DA6000E000BF7B681B680122396818463C
:1043200000F0CEFC7B681B68184A934209D07B687A
:104330001B68B3F1804F04D07B681B68144A93421A
:1043400015D17B681B689A68124B1340BB60BB6831
:10435000062B15D0BB68B3F5803F11D07B681B6876
:104360007A681268126842F001021A6008E07B68FD
:104370001B687A681268126842F001021A6000E055
:1043800000BF002318461037BD4680BD002C0140F9
:10439000004001400700010080B582B000AF7860A6
:1043A0007B681B681B6903F00203022B22D17B6828
:1043B0001B68DB6803F00203022B1BD17B681B68C0
:1043C0006FF002021A617B6801221A777B681B6812
:1043D0009B6903F00303002B03D07868FCF7EEFC25
:1043E00005E0786800F044FA786800F04BFA7B68E2
:1043F00000221A777B681B681B6903F00403042BF7
:1044000022D17B681B68DB6803F00403042B1BD1FB
:104410007B681B686FF004021A617B6802221A77BE
:104420007B681B689B6903F44073002B03D078689A
:10443000FCF7C4FC05E0786800F01AFA786800F030
:1044400021FA7B6800221A777B681B681B6903F0DE
:104450000803082B22D17B681B68DB6803F0080384
:10446000082B1BD17B681B686FF008021A617B6800
:1044700004221A777B681B68DB6903F00303002BB7
:1044800003D07868FCF79AFC05E0786800F0F0F952
:10449000786800F0F7F97B6800221A777B681B6860
:1044A0001B6903F01003102B22D17B681B68DB68AB
:1044B00003F01003102B1BD17B681B686FF01002F8
:1044C0001A617B6808221A777B681B68DB6903F432
:1044D0004073002B03D07868FCF770FC05E0786827
:1044E00000F0C6F9786800F0CDF97B6800221A77F1
:1044F0007B681B681B6903F00103012B0ED17B68ED
:104500001B68DB6803F00103012B07D17B681B6884
:104510006FF001021A617868FCF7B0FC7B681B68D9
:104520001B6903F08003802B0ED17B681B68DB685E
:1045300003F08003802B07D17B681B686FF080023B
:104540001A61786800F052FC7B681B681B6903F4F1
:104550008073B3F5807F0ED17B681B68DB6803F046
:104560008003802B07D17B681B686FF480721A610F
:10457000786800F045FC7B681B681B6903F040030A
:10458000402B0ED17B681B68DB6803F04003402B97
:1045900007D17B681B686FF040021A61786800F0F1
:1045A0007BF97B681B681B6903F02003202B0ED16D
:1045B0007B681B68DB6803F02003202B07D17B6836
:1045C0001B686FF020021A61786800F005FC00BFDC
:1045D0000837BD4680BD80B584B000AFF860B960D3
:1045E0007A60FB6893F83C30012B01D1022382E012
:1045F000FB68012283F83C207B68002B1BD1FB6801
:104600001868BB681968BB685A68BB68DB6800F04B
:10461000B1F9FB681B68FA681268926922F00C0213
:104620009A61FB681B68FA6812689169BA689268B7
:104630000A439A615AE07B68042B1CD1FB68186816
:10464000BB681968BB685A68BB68DB6800F017FA7A
:10465000FB681B68FA681268926922F440629A61EA
:10466000FB681B68FA6812689169BA68926812025E
:104670000A439A613AE07B68082B1BD1FB681868F3
:10468000BB681968BB685A68BB68DB6800F064FAED
:10469000FB681B68FA681268D26922F00C02DA61C2
:1046A000FB681B68FA681268D169BA6892680A43A5
:1046B000DA611BE0FB681868BB681968BB685A6858
:1046C000BB68DB6800F084FAFB681B68FA68126854
:1046D000D26922F44062DA61FB681B68FA681268EA
:1046E000D169BA68926812020A43DA61FB68002253
:1046F00083F83C20002318461037BD4680BD80B5A6
:1047000084B000AF786039607B6893F83C30012B4F
:1047100001D10223A8E07B68012283F83C207B685A
:10472000022283F83D207B681B689B68FB60FB6866
:1047300023F4803323F07703FB60FB6823F47F438B
:10474000FB607B681B68FA689A603B681B68402BBB
:1047500067D0402B0BD8102B73D0102B02D8002B16
:104760006FD078E0202B6CD0302B6AD073E0702BA8
:104770000DD0702B04D8502B33D0602B41D06AE081
:10478000B3F5805F66D0B3F5005F17D063E07B6858
:1047900018683B6899683B685A683B68DB6800F0BA
:1047A0006FFA7B681B689B68FB60FB6843F07703CC
:1047B000FB607B681B68FA689A604CE07B6818684D
:1047C0003B6899683B685A683B68DB6800F058FAB8
:1047D0007B681B687A681268926842F480429A602B
:1047E00039E07B6818683B6859683B68DB681A46A3
:1047F00000F016F97B681B685021184600F025FA76
:1048000029E07B6818683B6859683B68DB681A4692
:1048100000F072F97B681B686021184600F015FAF9
:1048200019E07B6818683B6859683B68DB681A4682
:1048300000F0F6F87B681B684021184600F005FA86
:1048400009E07B681A683B681B681946104600F04F
:10485000FCF900E000BF7B68012283F83D207B6803
:10486000002283F83C20002318461037BD4680BD47
:1048700080B483B000AF786000BF0C37BD465DF8F0
:10488000047B704780B483B000AF786000BF0C3702
:10489000BD465DF8047B704780B483B000AF78609C
:1048A00000BF0C37BD465DF8047B704780B485B00F
:1048B00000AF786039607B681B68FB607B682A4AC0
:1048C000934203D07B68B3F1804F08D1FB6823F09B
:1048D0007003FB603B685B68FA681343FB607B68AE
:1048E000214A93420BD07B68B3F1804F07D07B689D
:1048F0001E4A934203D07B681D4A934208D1FB684D
:1049000023F44073FB603B68DB68FA681343FB6089
:10491000FB6823F080023B685B691343FB607B68A4
:10492000FA681A603B689A687B68DA623B681A68C2
:104930007B689A627B680C4A934207D07B680B4A7B
:10494000934203D07B680A4A934203D13B681A69B9
:104950007B681A637B6801225A6100BF1437BD4629
:104960005DF8047B704700BF002C0140004001400F
:104970000044014080B487B000AFF860B9607A604D
:104980003B60FB681B6A23F00102FB681A62FB684C
:104990009B697B61FB681B6A3B61FB681E4A934213
:1049A00007D0FB68B3F1804F03D0FB681B4A9342EA
:1049B00001D1012300E00023002B08D07B6923F004
:1049C00003037B617A697B6813437B6103E07B6946
:1049D00043F001037B617B6923F0F0037B613B685B
:1049E0001B01DBB27A6913437B613B6923F00A0345
:1049F0003B61BB6803F00A033A6913433B61FB6800
:104A00007A699A61FB683A691A6200BF1C37BD4631
:104A10005DF8047B704700BF002C0140004001405E
:104A200080B487B000AFF860B9607A60FB681B6A39
:104A30007B61FB681B6A23F00102FB681A62FB685A
:104A40009B693B613B6923F0F0033B617B681B0181
:104A50003A6913433B617B6923F00A037B617A69FE
:104A6000BB6813437B61FB683A699A61FB687A69AA
:104A70001A6200BF1C37BD465DF8047B704780B4E6
:104A800087B000AFF860B9607A603B60FB681B6A72
:104A900023F01002FB681A62FB689B697B61FB686C
:104AA0001B6A3B617B6923F440737B617B681B025B
:104AB0007A6913437B617B6923F470437B613B68B4
:104AC0001B039BB27A6913437B613B6923F0A0030C
:104AD0003B61BB681B0103F0A0033A6913433B61D0
:104AE000FB687A699A61FB683A691A6200BF1C37F1
:104AF000BD465DF8047B704780B487B000AFF860B6
:104B0000B9607A60FB681B6A23F01002FB681A62C6
:104B1000FB689B697B61FB681B6A3B617B6923F4D3
:104B200070437B617B681B037A6913437B613B693C
:104B300023F0A0033B61BB681B013A6913433B614F
:104B4000FB687A699A61FB683A691A6200BF1C3790
:104B5000BD465DF8047B704780B487B000AFF86055
:104B6000B9607A603B60FB681B6A23F48072FB6863
:104B70001A62FB68DB697B61FB681B6A3B617B69CE
:104B800023F003037B617A697B6813437B617B6954
:104B900023F0F0037B613B681B01DBB27A691343AE
:104BA0007B613B6923F420633B61BB681B0203F418
:104BB00020633A6913433B61FB687A69DA61FB68F9
:104BC0003A691A6200BF1C37BD465DF8047B704726
:104BD00080B487B000AFF860B9607A603B60FB6872
:104BE0001B6A23F48052FB681A62FB68DB697B61F5
:104BF000FB681B6A3B617B6923F440737B617B68C4
:104C00001B027A6913437B617B6923F470437B61E8
:104C10003B681B039BB27A6913437B613B6923F4B6
:104C200020433B61BB681B0303F420433A691343F1
:104C30003B61FB687A69DA61FB683A691A6200BF16
:104C40001C37BD465DF8047B704780B485B000AF6B
:104C5000786039607B689B68FB60FB6823F07003B9
:104C6000FB603A68FB68134343F00703FB607B6813
:104C7000FA689A6000BF1437BD465DF8047B704740
:104C800080B487B000AFF860B9607A603B60FB68C1
:104C90009B687B617B6923F47F437B613B681A02DD
:104CA0007B681A43BB6813437A6913437B61FB68D3
:104CB0007A699A6000BF1C37BD465DF8047B704777
:104CC00080B487B000AFF860B9607A60BB6803F069
:104CD0001F03012202FA03F37B61FB681A6A7B69F6
:104CE000DB431A40FB681A62FB681A6ABB6803F070
:104CF0001F03796801FA03F31A43FB681A6200BFC5
:104D00001C37BD465DF8047B7047000080B485B059
:104D100000AF786039607B6893F83C30012B01D19B
:104D200002234FE07B68012283F83C207B6802224B
:104D300083F83D207B681B685B68FB607B681B68B1
:104D40009B68BB607B681B68214A934208D1FB6863
:104D500023F47003FB603B685B68FA681343FB60F5
:104D6000FB6823F07003FB603B681B68FA68134321
:104D7000FB607B681B68FA685A607B681B68144A92
:104D8000934209D07B681B68B3F1804F04D07B68E5
:104D90001B68104A93420CD1BB6823F08003BB60B0
:104DA0003B689B68BA681343BB607B681B68BA6842
:104DB0009A607B68012283F83D207B68002283F89B
:104DC0003C20002318461437BD465DF8047B70472D
:104DD000002C01400040014080B483B000AF7860F7
:104DE00000BF0C37BD465DF8047B704780B483B0CC
:104DF00000AF786000BF0C37BD465DF8047B70479C
:104E000080B483B000AF786000BF0C37BD465DF85A
:104E1000047B704780B582B000AF78607B68002B60
:104E200001D1012340E07B685B6F002B06D17B68DA
:104E3000002283F870207868FCF7DAFA7B68242275
:104E40005A677B681B687A681268126822F0010250
:104E50001A60786800F02CF80346012B01D1012379
:104E600022E07B685B6A002B02D0786800F028FAA9
:104E70007B681B687A681268526822F490425A6014
:104E80007B681B687A681268926822F02A029A602E
:104E90007B681B687A681268126842F001021A6027
:104EA000786800F0AFFA034618460837BD4680BD63
:104EB000B0B588B000AF78600023BB767B689A6895
:104EC0007B681B691A437B685B691A437B68DB69F3
:104ED0001343FB617B681A687B681B681968AC4BDD
:104EE0000B40F9690B4313607B681B687A68126892
:104EF000526822F440517A68D2680A435A607B684B
:104F00009B69FB617B681B68A24A934204D07B6863
:104F10001B6AFA691343FB617B681B687A68126835
:104F2000926822F43061FA690A439A607B681B68D0
:104F3000994A934222D1994BD3F8883003F0030366
:104F4000032B17D801A252F823F000BF5D4F0008D1
:104F5000694F0008634F00086F4F00080123FB767C
:104F600072E00223FB766FE00423FB766CE00823FB
:104F7000FB7669E01023FB7600BF65E07B681B6869
:104F8000874A934234D1854BD3F8883003F00C0321
:104F90000C2B29D801A252F823F000BFD14F0008F2
:104FA000E94F0008E94F0008E94F0008DD4F00080D
:104FB000E94F0008E94F0008E94F0008D74F000803
:104FC000E94F0008E94F0008E94F0008E34F0008E7
:104FD0000023FB7638E00223FB7635E00423FB76E2
:104FE00032E00823FB762FE01023FB7600BF2BE096
:104FF0007B681B68674A934224D1684BD3F888309A
:1050000003F44063B3F5806F12D0B3F5806F02D81C
:10501000002B07D012E0B3F5006F06D0B3F5406F58
:1050200009D00BE00023FB760EE00223FB760BE0B9
:105030000423FB7608E00823FB7605E01023FB76CB
:1050400000BF01E01023FB767B681B68514A934246
:105050006DD1FB7E082B24D801A252F823F000BFAB
:1050600085500008A35000088D500008A350000888
:1050700093500008A3500008A3500008A350000854
:105080009B500008FEF75EF978610FE0454B7B61AD
:105090000CE0FEF7C1F8786108E04FF400437B6153
:1050A00004E000237B610123BB7600BF7B69002BFA
:1050B00000F0F8807B685A6813465B001A447B69ED
:1050C0009A4205D87B685B681A037B699A4202D2D0
:1050D0000123BB76E6E07B691A464FF000031D0210
:1050E00045EA126514027B685B685B081A464FF05C
:1050F0000003A01845EB03017B685B684FF00004D8
:105100001A462346FBF7B4F803460C463B613B695D
:10511000B3F5407F08D33B69B3F5801F04D27B68A9
:105120001B683A69DA60BDE00123BB76BAE07B68B0
:10513000DB69B3F5004F68D1FB7E082B34D801A2A0
:1051400052F823F0695100087151000879510008A4
:10515000A95100087F510008A9510008A951000871
:10516000A951000887510008FEF7ECF8786120E0AB
:10517000FEF7FEF878611CE00A4B7B6119E0FEF750
:105180004BF8786115E04FF400437B6111E000BFFC
:10519000F369FFEF0080004000380140001002403A
:1051A000004400400024F40000237B610123BB760F
:1051B00000BF7B69002B75D07B695A007B685B68F8
:1051C0005B081A447B685B68B2FBF3F39BB23B61FC
:1051D0003B690F2B16D93B69B3F5803F12D23B696F
:1051E0009BB223F00F03FB813B695B089BB203F08A
:1051F00007039AB2FB891343FB817B681B68FA891A
:10520000DA604FE00123BB764CE0FB7E082B28D808
:1052100001A252F823F000BF3D5200084552000899
:105220004D520008635200085352000863520008B0
:1052300063520008635200085B520008FEF782F8D0
:10524000786113E0FEF794F878610FE01B4B7B6107
:105250000CE0FDF7E1FF786108E04FF400437B616B
:1052600004E000237B610123BB7600BF7B69002B38
:1052700018D07B685B685A087B691A447B685B6856
:10528000B2FBF3F39BB23B613B690F2B08D93B693F
:10529000B3F5803F04D27B681B683A69DA6001E0AD
:1052A0000123BB767B6800221A667B6800225A665F
:1052B000BB7E18462037BD46B0BD00BF0024F400B9
:1052C00080B483B000AF78607B685B6A03F0010351
:1052D000002B0AD07B681B687A681268526822F437
:1052E00000317A68926A0A435A607B685B6A03F00D
:1052F0000203002B0AD07B681B687A681268526828
:1053000022F480317A68D26A0A435A607B685B6A09
:1053100003F00403002B0AD07B681B687A681268CC
:10532000526822F480217A68126B0A435A607B68C3
:105330005B6A03F00803002B0AD07B681B687A685D
:105340001268526822F400417A68526B0A435A602C
:105350007B685B6A03F01003002B0AD07B681B6834
:105360007A681268926822F480517A68926B0A43D4
:105370009A607B685B6A03F02003002B0AD07B688D
:105380001B687A681268926822F400517A68D26BBE
:105390000A439A607B685B6A03F04003002B1AD0D3
:1053A0007B681B687A681268526822F480117A68F8
:1053B000126C0A435A607B681B6CB3F5801F0AD1DC
:1053C0007B681B687A681268526822F4C0017A68A8
:1053D000526C0A435A607B685B6A03F08003002BBF
:1053E0000AD07B681B687A681268526822F4002130
:1053F0007A68926C0A435A6000BF0C37BD465DF86C
:10540000047B704780B586B002AF78607B6800226D
:10541000DA67FCF7E7FAF8607B681B681B6803F043
:105420000803082B0ED16FF07E430093FB68002227
:105430004FF40011786800F02AF80346002B01D0E1
:10544000032320E07B681B681B6803F00403042B24
:105450000ED16FF07E430093FB6800224FF4800171
:10546000786800F014F80346002B01D003230AE00B
:105470007B6820225A677B6820229A677B6800221B
:1054800083F87020002318461037BD4680BD80B5D4
:1054900084B000AFF860B9603B601346FB715DE01B
:1054A000BB69B3F1FF3F59D0FCF79CFA02463B6859
:1054B000D21ABB699A4202D8BB69002B1BD1FB6888
:1054C0001B68FA681268126822F4D0721A60FB68CE
:1054D0001B68FA681268926822F001029A60FB6801
:1054E00020225A67FB6820229A67FB68002283F813
:1054F0007020032342E0FB681B681B6803F0040371
:10550000002B2BD0FB681B68DB6903F40063B3F549
:10551000006F23D1FB681B684FF400621A62FB68BE
:105520001B68FA681268126822F4D0721A60FB686D
:105530001B68FA681268926822F001029A60FB68A0
:1055400020225A67FB6820229A67FB682022DA67CC
:10555000FB68002283F8702003230FE0FB681B68C0
:10556000DA69BB681A40BB689A420CBF012300236A
:10557000DBB21A46FB799A4292D0002318461037C4
:10558000BD4680BD80B58AB000AF78600023FB6166
:1055900000F028FD574B1B68002B01D100F00CF9DF
:1055A000554B1A687B681340002B40F08C807B6859
:1055B000002B1CD008227B6813447B607B6803F0BF
:1055C0000703002B13D07B6823F0070308337B60AD
:1055D0007B6803F00703002B09D04FF0500383F3DF
:1055E0001188BFF36F8FBFF34F8F7B61FEE77B683E
:1055F000002B68D0414B1B687A689A4263D8404BB5
:105600003B623F4B1B687B6204E07B6A3B627B6AC8
:105610001B687B627B6A5A687B689A4203D27B6A0A
:105620001B68002BF1D1334B1B687A6A9A424AD02F
:105630003B6A1B6808221344FB617B6A1A683B6A59
:105640001A607B6A5A687B68D21A08235B009A4208
:105650001ED97A6A7B681344BB61BB6903F00703F8
:10566000002B09D04FF0500383F31188BFF36F8FE5
:10567000BFF34F8F3B61FEE77B6A5A687B68D21AA3
:10568000BB695A607B6A7A685A60B86900F0F6F8BC
:105690001A4B1A687B6A5B68D31A184A1360174B57
:1056A0001A68184B1B689A4203D2144B1B68154AA0
:1056B00013607B6A5A68104B1B681A437B6A5A60F6
:1056C0007B6A00221A6000F09BFCFB6903F0070371
:1056D000002B09D04FF0500383F31188BFF36F8F75
:1056E000BFF34F8FFB60FEE7FB6918462837BD46C6
:1056F00080BD00BF7C10002088100020801000209A
:10570000741000208410002080B586B000AF78604F
:105710007B687B617B68002B46D008235B427A69FB
:1057200013447B617B693B613B695A68204B1B6872
:105730001340002B09D14FF0500383F31188BFF3BE
:105740006F8FBFF34F8FFB60FEE73B691B68002B39
:1057500009D04FF0500383F31188BFF36F8FBFF36D
:105760004F8FBB60FEE73B695A68114B1B681340C3
:10577000002B19D03B691B68002B15D13B695A6877
:105780000B4B1B68DB431A403B695A6000F02AFC54
:105790003B695A68074B1B681344064A1360386913
:1057A00000F06CF800F02CFC00BF1837BD4680BD3F
:1057B000881000208010002080B485B000AF40F633
:1057C000B833BB60274BFB60FB6803F00703002B7B
:1057D0000CD0FB680733FB60FB6823F00703FB601A
:1057E000BA68FB68D31A1F4A1344BB60FB687B602E
:1057F0001D4A7B6813601C4B00225A607A68BB68A4
:105800001344FB600822FB689B1AFB60FB6823F0D3
:105810000703FB60FB68154A1360144B1B680022EA
:105820005A60124B1B6800221A607B683B603B6821
:10583000FA68D21A3B685A600C4B1A683B681A60C7
:105840003B685B680A4A13603B685B68094A1360FF
:10585000094B4FF000421A6000BF1437BD465DF897
:10586000047B7047BC040020741000207C100020D2
:1058700084100020801000208810002080B485B0A3
:1058800000AF7860284BFB6002E0FB681B68FB60A0
:10589000FB681A687B689A42F7D3FB68BB60FB68B9
:1058A0005B68BA681A447B689A4208D1FB685A68F8
:1058B0007B685B681A44FB685A60FB687B607B68A6
:1058C000BB607B685B68BA681A44FB681B689A42D5
:1058D00018D1FB681A68154B1B689A420DD07B687B
:1058E0005A68FB681B685B681A447B685A60FB68EF
:1058F0001B681A687B681A6008E00C4B1A687B68A2
:105900001A6003E0FB681A687B681A60FA687B68B3
:105910009A4202D0FB687A681A6000BF1437BD460D
:105920005DF8047B704700BF741000207C100020DD
:1059300080B483B000AF78607B6803F108027B68B5
:105940005A607B684FF0FF329A607B6803F108026F
:105950007B68DA607B6803F108027B681A617B6808
:1059600000221A6000BF0C37BD465DF8047B70470B
:1059700080B483B000AF78607B6800221A6100BFFA
:105980000C37BD465DF8047B704780B485B000AF2E
:10599000786039607B685B68FB603B68FA685A60D6
:1059A000FB689A683B689A60FB689B683A685A6033
:1059B000FB683A689A603B687A681A617B681B6882
:1059C0005A1C7B681A6000BF1437BD465DF8047B23
:1059D000704780B485B000AF78607B681B69FB605E
:1059E0007B685B687A6892689A607B689B687A6873
:1059F00052685A60FB685A687B689A4203D17B6898
:105A00009A68FB685A607B6800221A61FB681B6811
:105A10005A1EFB681A60FB681B6818461437BD469F
:105A20005DF8047B7047000080B485B000AFF8607B
:105A3000B9607A60FB68043BFB60FB684FF08072E2
:105A40001A60FB68043BFB60BB6823F00102FB6843
:105A50001A60FB68043BFB600C4AFB681A60FB6839
:105A6000143BFB607A68FB681A60FB68043BFB60D0
:105A7000FB686FF002021A60FB68203BFB60FB686A
:105A800018461437BD465DF8047B7047915A0008EC
:105A900080B485B000AF00237B60114B1B68B3F16D
:105AA000FF3F09D04FF0500383F31188BFF36F8F8E
:105AB000BFF34F8FFB60FEE74FF0500383F3118875
:105AC000BFF36F8FBFF34F8FBB6000BF7B68002BAE
:105AD000FCD000BF1437BD465DF8047B704700BFA3
